:020000020000FC
:100000000C9404000C941A0001E20EBF0FEF0DBF18
:100010000FEF0DB900270EB90FEF07B902E00093FB
:1000200069000DB301600DBB789430E340E316D056
:1000300053D0FECF57D099B19E3FE1F316D0132F86
:100040000BD0142F02D008D01895B0EFD0EFDA956E
:10005000F1F7BA95E1F708950CD0089527D012E092
:1000600013D01BD01FE007D018D011E004D018D057
:10007000089520E301C02227012F107F1295122B33
:1000800003D0102F1F70122B16D00000759A00009D
:1000900000007598000000000895FF27EEE108C0F9
:1000A000F3E0E8EE05C0F1E1E8EF02C0F3E2E8E2D8
:1000B0003197F1F708950F93002710FD046011FDAB
:1000C000086012FD016013FD026014FD006215FD61
:1000D00000680EB90F9108953395383309F00895EB
:1000E00030E308955AE3373330F44395451709F068
:0A00F000089540E3089556E3F8CFA9
:00000001FF
